{
  "contractName": "SolnSquareVerifier",
  "abi": [
    {
      "constant": true,
      "inputs": [
        {
          "name": "interfaceId",
          "type": "bytes4"
        }
      ],
      "name": "supportsInterface",
      "outputs": [
        {
          "name": "",
          "type": "bool"
        }
      ],
      "payable": false,
      "stateMutability": "view",
      "type": "function"
    },
    {
      "constant": true,
      "inputs": [
        {
          "name": "tokenId",
          "type": "uint256"
        }
      ],
      "name": "getApproved",
      "outputs": [
        {
          "name": "",
          "type": "address"
        }
      ],
      "payable": false,
      "stateMutability": "view",
      "type": "function"
    },
    {
      "constant": false,
      "inputs": [
        {
          "name": "to",
          "type": "address"
        },
        {
          "name": "tokenId",
          "type": "uint256"
        }
      ],
      "name": "approve",
      "outputs": [],
      "payable": false,
      "stateMutability": "nonpayable",
      "type": "function"
    },
    {
      "constant": true,
      "inputs": [],
      "name": "getSymbol",
      "outputs": [
        {
          "name": "",
          "type": "string"
        }
      ],
      "payable": false,
      "stateMutability": "view",
      "type": "function"
    },
    {
      "constant": false,
      "inputs": [
        {
          "name": "paused",
          "type": "bool"
        }
      ],
      "name": "setPaused",
      "outputs": [],
      "payable": false,
      "stateMutability": "nonpayable",
      "type": "function"
    },
    {
      "constant": true,
      "inputs": [],
      "name": "getName",
      "outputs": [
        {
          "name": "",
          "type": "string"
        }
      ],
      "payable": false,
      "stateMutability": "view",
      "type": "function"
    },
    {
      "constant": true,
      "inputs": [],
      "name": "totalSupply",
      "outputs": [
        {
          "name": "",
          "type": "uint256"
        }
      ],
      "payable": false,
      "stateMutability": "view",
      "type": "function"
    },
    {
      "constant": false,
      "inputs": [
        {
          "name": "from",
          "type": "address"
        },
        {
          "name": "to",
          "type": "address"
        },
        {
          "name": "tokenId",
          "type": "uint256"
        }
      ],
      "name": "transferFrom",
      "outputs": [],
      "payable": false,
      "stateMutability": "nonpayable",
      "type": "function"
    },
    {
      "constant": false,
      "inputs": [
        {
          "name": "_myid",
          "type": "bytes32"
        },
        {
          "name": "_result",
          "type": "string"
        }
      ],
      "name": "__callback",
      "outputs": [],
      "payable": false,
      "stateMutability": "nonpayable",
      "type": "function"
    },
    {
      "constant": true,
      "inputs": [
        {
          "name": "owner",
          "type": "address"
        },
        {
          "name": "index",
          "type": "uint256"
        }
      ],
      "name": "tokenOfOwnerByIndex",
      "outputs": [
        {
          "name": "",
          "type": "uint256"
        }
      ],
      "payable": false,
      "stateMutability": "view",
      "type": "function"
    },
    {
      "constant": false,
      "inputs": [
        {
          "name": "_myid",
          "type": "bytes32"
        },
        {
          "name": "_result",
          "type": "string"
        },
        {
          "name": "_proof",
          "type": "bytes"
        }
      ],
      "name": "__callback",
      "outputs": [],
      "payable": false,
      "stateMutability": "nonpayable",
      "type": "function"
    },
    {
      "constant": false,
      "inputs": [
        {
          "name": "to",
          "type": "address"
        },
        {
          "name": "tokenId",
          "type": "uint256"
        }
      ],
      "name": "mint",
      "outputs": [
        {
          "name": "",
          "type": "bool"
        }
      ],
      "payable": false,
      "stateMutability": "nonpayable",
      "type": "function"
    },
    {
      "constant": false,
      "inputs": [
        {
          "name": "from",
          "type": "address"
        },
        {
          "name": "to",
          "type": "address"
        },
        {
          "name": "tokenId",
          "type": "uint256"
        }
      ],
      "name": "safeTransferFrom",
      "outputs": [],
      "payable": false,
      "stateMutability": "nonpayable",
      "type": "function"
    },
    {
      "constant": true,
      "inputs": [
        {
          "name": "index",
          "type": "uint256"
        }
      ],
      "name": "tokenByIndex",
      "outputs": [
        {
          "name": "",
          "type": "uint256"
        }
      ],
      "payable": false,
      "stateMutability": "view",
      "type": "function"
    },
    {
      "constant": false,
      "inputs": [
        {
          "name": "a",
          "type": "uint256[2]"
        },
        {
          "name": "b",
          "type": "uint256[2][2]"
        },
        {
          "name": "c",
          "type": "uint256[2]"
        },
        {
          "name": "input",
          "type": "uint256[2]"
        }
      ],
      "name": "verifyTx",
      "outputs": [
        {
          "name": "r",
          "type": "bool"
        }
      ],
      "payable": false,
      "stateMutability": "nonpayable",
      "type": "function"
    },
    {
      "constant": true,
      "inputs": [
        {
          "name": "tokenId",
          "type": "uint256"
        }
      ],
      "name": "ownerOf",
      "outputs": [
        {
          "name": "",
          "type": "address"
        }
      ],
      "payable": false,
      "stateMutability": "view",
      "type": "function"
    },
    {
      "constant": true,
      "inputs": [
        {
          "name": "owner",
          "type": "address"
        }
      ],
      "name": "balanceOf",
      "outputs": [
        {
          "name": "",
          "type": "uint256"
        }
      ],
      "payable": false,
      "stateMutability": "view",
      "type": "function"
    },
    {
      "constant": true,
      "inputs": [],
      "name": "getOwner",
      "outputs": [
        {
          "name": "",
          "type": "address"
        }
      ],
      "payable": false,
      "stateMutability": "view",
      "type": "function"
    },
    {
      "constant": false,
      "inputs": [
        {
          "name": "to",
          "type": "address"
        },
        {
          "name": "approved",
          "type": "bool"
        }
      ],
      "name": "setApprovalForAll",
      "outputs": [],
      "payable": false,
      "stateMutability": "nonpayable",
      "type": "function"
    },
    {
      "constant": true,
      "inputs": [
        {
          "name": "",
          "type": "uint256"
        }
      ],
      "name": "solutions",
      "outputs": [
        {
          "name": "index",
          "type": "uint256"
        },
        {
          "name": "solutionAddress",
          "type": "address"
        }
      ],
      "payable": false,
      "stateMutability": "view",
      "type": "function"
    },
    {
      "constant": false,
      "inputs": [
        {
          "name": "from",
          "type": "address"
        },
        {
          "name": "to",
          "type": "address"
        },
        {
          "name": "tokenId",
          "type": "uint256"
        },
        {
          "name": "_data",
          "type": "bytes"
        }
      ],
      "name": "safeTransferFrom",
      "outputs": [],
      "payable": false,
      "stateMutability": "nonpayable",
      "type": "function"
    },
    {
      "constant": true,
      "inputs": [],
      "name": "getBaseTokenURI",
      "outputs": [
        {
          "name": "",
          "type": "string"
        }
      ],
      "payable": false,
      "stateMutability": "view",
      "type": "function"
    },
    {
      "constant": true,
      "inputs": [
        {
          "name": "tokenId",
          "type": "uint256"
        }
      ],
      "name": "tokenURI",
      "outputs": [
        {
          "name": "",
          "type": "string"
        }
      ],
      "payable": false,
      "stateMutability": "view",
      "type": "function"
    },
    {
      "constant": true,
      "inputs": [
        {
          "name": "owner",
          "type": "address"
        },
        {
          "name": "operator",
          "type": "address"
        }
      ],
      "name": "isApprovedForAll",
      "outputs": [
        {
          "name": "",
          "type": "bool"
        }
      ],
      "payable": false,
      "stateMutability": "view",
      "type": "function"
    },
    {
      "constant": false,
      "inputs": [
        {
          "name": "newOwner",
          "type": "address"
        }
      ],
      "name": "transferOwnership",
      "outputs": [],
      "payable": false,
      "stateMutability": "nonpayable",
      "type": "function"
    },
    {
      "anonymous": false,
      "inputs": [
        {
          "indexed": false,
          "name": "index",
          "type": "uint256"
        },
        {
          "indexed": false,
          "name": "solutionAddress",
          "type": "address"
        }
      ],
      "name": "SolutionAdded",
      "type": "event"
    },
    {
      "anonymous": false,
      "inputs": [
        {
          "indexed": false,
          "name": "s",
          "type": "string"
        }
      ],
      "name": "Verified",
      "type": "event"
    },
    {
      "anonymous": false,
      "inputs": [
        {
          "indexed": true,
          "name": "from",
          "type": "address"
        },
        {
          "indexed": true,
          "name": "to",
          "type": "address"
        },
        {
          "indexed": true,
          "name": "tokenId",
          "type": "uint256"
        }
      ],
      "name": "Transfer",
      "type": "event"
    },
    {
      "anonymous": false,
      "inputs": [
        {
          "indexed": true,
          "name": "owner",
          "type": "address"
        },
        {
          "indexed": true,
          "name": "approved",
          "type": "address"
        },
        {
          "indexed": true,
          "name": "tokenId",
          "type": "uint256"
        }
      ],
      "name": "Approval",
      "type": "event"
    },
    {
      "anonymous": false,
      "inputs": [
        {
          "indexed": true,
          "name": "owner",
          "type": "address"
        },
        {
          "indexed": true,
          "name": "operator",
          "type": "address"
        },
        {
          "indexed": false,
          "name": "approved",
          "type": "bool"
        }
      ],
      "name": "ApprovalForAll",
      "type": "event"
    },
    {
      "anonymous": false,
      "inputs": [
        {
          "indexed": false,
          "name": "caller",
          "type": "address"
        }
      ],
      "name": "Paused",
      "type": "event"
    },
    {
      "anonymous": false,
      "inputs": [
        {
          "indexed": false,
          "name": "caller",
          "type": "address"
        }
      ],
      "name": "Unpaused",
      "type": "event"
    },
    {
      "anonymous": false,
      "inputs": [
        {
          "indexed": true,
          "name": "newOwner",
          "type": "address"
        }
      ],
      "name": "OwnershipTransferred",
      "type": "event"
    },
    {
      "constant": false,
      "inputs": [
        {
          "name": "index",
          "type": "uint256"
        },
        {
          "name": "solutionAddress",
          "type": "address"
        }
      ],
      "name": "addSolution",
      "outputs": [],
      "payable": false,
      "stateMutability": "nonpayable",
      "type": "function"
    },
    {
      "constant": false,
      "inputs": [
        {
          "name": "to",
          "type": "address"
        },
        {
          "name": "tokenId",
          "type": "uint256"
        },
        {
          "name": "a",
          "type": "uint256[2]"
        },
        {
          "name": "b",
          "type": "uint256[2][2]"
        },
        {
          "name": "c",
          "type": "uint256[2]"
        },
        {
          "name": "input",
          "type": "uint256[2]"
        }
      ],
      "name": "mintNewNFT",
      "outputs": [],
      "payable": false,
      "stateMutability": "nonpayable",
      "type": "function"
    }
  ],
  "bytecode": "0x60806040526040518060400160405280600881526020017f496d6d6f436f696e0000000000000000000000000000000000000000000000008152506040518060400160405280600381526020017f494d4f00000000000000000000000000000000000000000000000000000000008152506040518060600160405280603f815260200162004c48603f9139336000806101000a81548173ffffffffffffffffffffffffffffffffffffffff021916908373ffffffffffffffffffffffffffffffffffffffff1602179055506000809054906101000a900473ffffffffffffffffffffffffffffffffffffffff1673ffffffffffffffffffffffffffffffffffffffff167f04dba622d284ed0014ee4b9a6a68386be1a4c08a4913ae272de89199cc68616360405160405180910390a260008060146101000a81548160ff0219169083151502179055507f62e78cea01bee320cd4e420270b5ea74000d11b0c9f74754ebdbfc544b05a25833604051808273ffffffffffffffffffffffffffffffffffffffff1673ffffffffffffffffffffffffffffffffffffffff16815260200191505060405180910390a1620001c36301ffc9a760e01b620002a060201b60201c565b620001db6380ac58cd60e01b620002a060201b60201c565b620001f363780e9d6360e01b620002a060201b60201c565b82600f90805190602001906200020b92919062000342565b5081601090805190602001906200022492919062000342565b5080601190805190602001906200023d92919062000342565b5062000256635b5e139f60e01b620002a060201b60201c565b50505033601360006101000a81548173ffffffffffffffffffffffffffffffffffffffff021916908373ffffffffffffffffffffffffffffffffffffffff160217905550620003f1565b63ffffffff60e01b817bffffffffffffffffffffffffffffffffffffffffffffffffffffffff191614151515620002d657600080fd5b6001806000837bffffffffffffffffffffffffffffffffffffffffffffffffffffffff19167bffffffffffffffffffffffffffffffffffffffffffffffffffffffff1916815260200190815260200160002060006101000a81548160ff02191690831515021790555050565b828054600181600116156101000203166002900490600052602060002090601f016020900481019282601f106200038557805160ff1916838001178555620003b6565b82800160010185558215620003b6579182015b82811115620003b557825182559160200191906001019062000398565b5b509050620003c59190620003c9565b5090565b620003ee91905b80821115620003ea576000816000905550600101620003d0565b5090565b90565b61484780620004016000396000f3fe608060405234801561001057600080fd5b50600436106101a95760003560e01c80634f6ccce7116100f9578063b71698c711610097578063c87b56dd11610071578063c87b56dd14610e8b578063ccd0ef6914610f32578063e985e9c514610f80578063f2fde38b14610ffc576101a9565b8063b71698c714610c8e578063b88d4fde14610d03578063bdc32be014610e08576101a9565b80636aa69d4e116100d35780636aa69d4e14610a1157806370a0823114610b9c578063893d20e814610bf4578063a22cb46514610c3e576101a9565b80634f6ccce7146107e8578063621e9ec01461082a5780636352211e146109a3576101a9565b806318160ddd116101665780632f745c59116101405780632f745c591461055657806338bbfa50146105b857806340c10f191461071457806342842e0e1461077a576101a9565b806318160ddd1461040557806323b872dd1461042357806327dc297e14610491576101a9565b806301ffc9a7146101ae578063081812fc14610213578063095ea7b31461028157806315070401146102cf57806316c38b3c1461035257806317d7de7c14610382575b600080fd5b6101f9600480360360208110156101c457600080fd5b8101908080357bffffffffffffffffffffffffffffffffffffffffffffffffffffffff19169060200190929190505050611040565b604051808215151515815260200191505060405180910390f35b61023f6004803603602081101561022957600080fd5b81019080803590602001909291905050506110a8565b604051808273ffffffffffffffffffffffffffffffffffffffff1673ffffffffffffffffffffffffffffffffffffffff16815260200191505060405180910390f35b6102cd6004803603604081101561029757600080fd5b81019080803573ffffffffffffffffffffffffffffffffffffffff169060200190929190803590602001909291905050506110e5565b005b6102d7611380565b6040518080602001828103825283818151815260200191508051906020019080838360005b838110156103175780820151818401526020810190506102fc565b50505050905090810190601f1680156103445780820380516001836020036101000a031916815260200191505b509250505060405180910390f35b6103806004803603602081101561036857600080fd5b81019080803515159060200190929190505050611422565b005b61038a611635565b6040518080602001828103825283818151815260200191508051906020019080838360005b838110156103ca5780820151818401526020810190506103af565b50505050905090810190601f1680156103f75780820380516001836020036101000a031916815260200191505b509250505060405180910390f35b61040d6116d7565b6040518082815260200191505060405180910390f35b61048f6004803603606081101561043957600080fd5b81019080803573ffffffffffffffffffffffffffffffffffffffff169060200190929190803573ffffffffffffffffffffffffffffffffffffffff169060200190929190803590602001909291905050506116e4565b005b610554600480360360408110156104a757600080fd5b8101908080359060200190929190803590602001906401000000008111156104ce57600080fd5b8201836020820111156104e057600080fd5b8035906020019184600183028401116401000000008311171561050257600080fd5b91908080601f016020809104026020016040519081016040528093929190818152602001838380828437600081840152601f19601f820116905080830192505050505050509192919290505050611709565b005b6105a26004803603604081101561056c57600080fd5b81019080803573ffffffffffffffffffffffffffffffffffffffff1690602001909291908035906020019092919050505061174c565b6040518082815260200191505060405180910390f35b610712600480360360608110156105ce57600080fd5b8101908080359060200190929190803590602001906401000000008111156105f557600080fd5b82018360208201111561060757600080fd5b8035906020019184600183028401116401000000008311171561062957600080fd5b91908080601f016020809104026020016040519081016040528093929190818152602001838380828437600081840152601f19601f8201169050808301925050505050505091929192908035906020019064010000000081111561068c57600080fd5b82018360208201111561069e57600080fd5b803590602001918460018302840111640100000000831117156106c057600080fd5b91908080601f016020809104026020016040519081016040528093929190818152602001838380828437600081840152601f19601f8201169050808301925050505050505091929192905050506117c3565b005b6107606004803603604081101561072a57600080fd5b81019080803573ffffffffffffffffffffffffffffffffffffffff169060200190929190803590602001909291905050506117c8565b604051808215151515815260200191505060405180910390f35b6107e66004803603606081101561079057600080fd5b81019080803573ffffffffffffffffffffffffffffffffffffffff169060200190929190803573ffffffffffffffffffffffffffffffffffffffff16906020019092919080359060200190929190505050611915565b005b610814600480360360208110156107fe57600080fd5b8101908080359060200190929190505050611935565b6040518082815260200191505060405180910390f35b610989600480360361014081101561084157600080fd5b8101908080604001906002806020026040519081016040528092919082600260200280828437600081840152601f19601f82011690508083019250505050505091929192908060800190600280602002604051908101604052809291906000905b828210156108f6578382604002016002806020026040519081016040528092919082600260200280828437600081840152601f19601f820116905080830192505050505050815260200190600101906108a2565b50505050919291929080604001906002806020026040519081016040528092919082600260200280828437600081840152601f19601f820116905080830192505050505050919291929080604001906002806020026040519081016040528092919082600260200280828437600081840152601f19601f820116905080830192505050505050919291929050505061196d565b604051808215151515815260200191505060405180910390f35b6109cf600480360360208110156109b957600080fd5b8101908080359060200190929190505050611bd2565b604051808273ffffffffffffffffffffffffffffffffffffffff1673ffffffffffffffffffffffffffffffffffffffff16815260200191505060405180910390f35b610b9a6004803603610180811015610a2857600080fd5b81019080803573ffffffffffffffffffffffffffffffffffffffff1690602001909291908035906020019092919080604001906002806020026040519081016040528092919082600260200280828437600081840152601f19601f82011690508083019250505050505091929192908060800190600280602002604051908101604052809291906000905b82821015610b07578382604002016002806020026040519081016040528092919082600260200280828437600081840152601f19601f82011690508083019250505050505081526020019060010190610ab3565b50505050919291929080604001906002806020026040519081016040528092919082600260200280828437600081840152601f19601f820116905080830192505050505050919291929080604001906002806020026040519081016040528092919082600260200280828437600081840152601f19601f8201169050808301925050505050509192919290505050611c0f565b005b610bde60048036036020811015610bb257600080fd5b81019080803573ffffffffffffffffffffffffffffffffffffffff169060200190929190505050611cac565b6040518082815260200191505060405180910390f35b610bfc611da0565b604051808273ffffffffffffffffffffffffffffffffffffffff1673ffffffffffffffffffffffffffffffffffffffff16815260200191505060405180910390f35b610c8c60048036036040811015610c5457600080fd5b81019080803573ffffffffffffffffffffffffffffffffffffffff169060200190929190803515159060200190929190505050611dc9565b005b610cba60048036036020811015610ca457600080fd5b8101908080359060200190929190505050611f6e565b604051808381526020018273ffffffffffffffffffffffffffffffffffffffff1673ffffffffffffffffffffffffffffffffffffffff1681526020019250505060405180910390f35b610e0660048036036080811015610d1957600080fd5b81019080803573ffffffffffffffffffffffffffffffffffffffff169060200190929190803573ffffffffffffffffffffffffffffffffffffffff1690602001909291908035906020019092919080359060200190640100000000811115610d8057600080fd5b820183602082011115610d9257600080fd5b80359060200191846001830284011164010000000083111715610db457600080fd5b91908080601f016020809104026020016040519081016040528093929190818152602001838380828437600081840152601f19601f820116905080830192505050505050509192919290505050611fc1565b005b610e10612052565b6040518080602001828103825283818151815260200191508051906020019080838360005b83811015610e50578082015181840152602081019050610e35565b50505050905090810190601f168015610e7d5780820380516001836020036101000a031916815260200191505b509250505060405180910390f35b610eb760048036036020811015610ea157600080fd5b81019080803590602001909291905050506120f4565b6040518080602001828103825283818151815260200191508051906020019080838360005b83811015610ef7578082015181840152602081019050610edc565b50505050905090810190601f168015610f245780820380516001836020036101000a031916815260200191505b509250505060405180910390f35b610f7e60048036036040811015610f4857600080fd5b8101908080359060200190929190803573ffffffffffffffffffffffffffffffffffffffff1690602001909291905050506121bd565b005b610fe260048036036040811015610f9657600080fd5b81019080803573ffffffffffffffffffffffffffffffffffffffff169060200190929190803573ffffffffffffffffffffffffffffffffffffffff1690602001909291905050506123fb565b604051808215151515815260200191505060405180910390f35b61103e6004803603602081101561101257600080fd5b81019080803573ffffffffffffffffffffffffffffffffffffffff16906020019092919050505061248f565b005b600060016000837bffffffffffffffffffffffffffffffffffffffffffffffffffffffff19167bffffffffffffffffffffffffffffffffffffffffffffffffffffffff1916815260200190815260200160002060009054906101000a900460ff169050919050565b60006003600083815260200190815260200160002060009054906101000a900473ffffffffffffffffffffffffffffffffffffffff169050919050565b6002600082815260200190815260200160002060009054906101000a900473ffffffffffffffffffffffffffffffffffffffff1673ffffffffffffffffffffffffffffffffffffffff168273ffffffffffffffffffffffffffffffffffffffff161415151561119f576040517f08c379a000000000000000000000000000000000000000000000000000000000815260040180806020018281038252602b815260200180614787602b913960400191505060405180910390fd5b6002600082815260200190815260200160002060009054906101000a900473ffffffffffffffffffffffffffffffffffffffff1673ffffffffffffffffffffffffffffffffffffffff163373ffffffffffffffffffffffffffffffffffffffff16148061124557506112446002600083815260200190815260200160002060009054906101000a900473ffffffffffffffffffffffffffffffffffffffff16336123fb565b5b151561129c576040517f08c379a00000000000000000000000000000000000000000000000000000000081526004018080602001828103825260268152602001806147d46026913960400191505060405180910390fd5b816003600083815260200190815260200160002060006101000a81548173ffffffffffffffffffffffffffffffffffffffff021916908373ffffffffffffffffffffffffffffffffffffffff160217905550808273ffffffffffffffffffffffffffffffffffffffff166002600084815260200190815260200160002060009054906101000a900473ffffffffffffffffffffffffffffffffffffffff1673ffffffffffffffffffffffffffffffffffffffff167f8c5be1e5ebec7d5bd14f71427d1e84f3dd0314c0f7b2291e5b200ac8c7c3b92560405160405180910390a45050565b606060108054600181600116156101000203166002900480601f0160208091040260200160405190810160405280929190818152602001828054600181600116156101000203166002900480156114185780601f106113ed57610100808354040283529160200191611418565b820191906000526020600020905b8154815290600101906020018083116113fb57829003601f168201915b5050505050905090565b6000809054906101000a900473ffffffffffffffffffffffffffffffffffffffff1673ffffffffffffffffffffffffffffffffffffffff163373ffffffffffffffffffffffffffffffffffffffff161415156114c9576040517f08c379a00000000000000000000000000000000000000000000000000000000081526004018080602001828103825260228152602001806147656022913960400191505060405180910390fd5b801515600060149054906101000a900460ff16151514151515611537576040517f08c379a00000000000000000000000000000000000000000000000000000000081526004018080602001828103825260228152602001806147fa6022913960400191505060405180910390fd5b80600060146101000a81548160ff021916908315150217905550600060149054906101000a900460ff16156115ce577f62e78cea01bee320cd4e420270b5ea74000d11b0c9f74754ebdbfc544b05a25833604051808273ffffffffffffffffffffffffffffffffffffffff1673ffffffffffffffffffffffffffffffffffffffff16815260200191505060405180910390a1611632565b7f5db9ee0a495bf2e6ff9c91a7834c1ba4fdd244a5e8aa4e537bd38aeae4b073aa33604051808273ffffffffffffffffffffffffffffffffffffffff1673ffffffffffffffffffffffffffffffffffffffff16815260200191505060405180910390a15b50565b6060600f8054600181600116156101000203166002900480601f0160208091040260200160405190810160405280929190818152602001828054600181600116156101000203166002900480156116cd5780601f106116a2576101008083540402835291602001916116cd565b820191906000526020600020905b8154815290600101906020018083116116b057829003601f168201915b5050505050905090565b6000600880549050905090565b6116ee3382612682565b15156116f957600080fd5b611704838383612717565b505050565b611748828260006040519080825280601f01601f1916602001820160405280156117425781602001600182028038833980820191505090505b506117c3565b5050565b600061175783611cac565b8210151561176457600080fd5b600660008473ffffffffffffffffffffffffffffffffffffffff1673ffffffffffffffffffffffffffffffffffffffff168152602001908152602001600020828154811015156117b057fe5b9060005260206000200154905092915050565b505050565b60008060009054906101000a900473ffffffffffffffffffffffffffffffffffffffff1673ffffffffffffffffffffffffffffffffffffffff163373ffffffffffffffffffffffffffffffffffffffff16141515611871576040517f08c379a00000000000000000000000000000000000000000000000000000000081526004018080602001828103825260228152602001806147656022913960400191505060405180910390fd5b60001515600060149054906101000a900460ff1615151415156118fc576040517f08c379a00000000000000000000000000000000000000000000000000000000081526004018080602001828103825260138152602001807f436f6e7472616374206973207061757365642e0000000000000000000000000081525060200191505060405180910390fd5b611906838361273b565b61190f8261275c565b92915050565b61193083838360405180602001604052806000815250611fc1565b505050565b600061193f6116d7565b8210151561194c57600080fd5b60088281548110151561195b57fe5b90600052602060002001549050919050565b6000611977614535565b604051806040016040528087600060028110151561199157fe5b602002015181526020018760016002811015156119aa57fe5b60200201518152508160000181905250604051806040016040528060405180604001604052808860006002811015156119df57fe5b602002015160006002811015156119f257fe5b60200201518152602001886000600281101515611a0b57fe5b60200201516001600281101515611a1e57fe5b602002015181525081526020016040518060400160405280886001600281101515611a4557fe5b60200201516000600281101515611a5857fe5b60200201518152602001886001600281101515611a7157fe5b60200201516001600281101515611a8457fe5b602002015181525081525081602001819052506040518060400160405280856000600281101515611ab157fe5b60200201518152602001856001600281101515611aca57fe5b6020020151815250816040018190525060606002604051908082528060200260200182016040528015611b0c5781602001602082028038833980820191505090505b50905060008090505b6002811015611b5a578481600281101515611b2c57fe5b60200201518282815181101515611b3f57fe5b90602001906020020181815250508080600101915050611b15565b506000611b6782846128af565b1415611bc3577f3f3cfdb26fb5f9f1786ab4f1a1f9cd4c0b5e726cbdfc26e495261731aad44e396040518080602001828103825260228152602001806147b26022913960400191505060405180910390a1600192505050611bca565b6000925050505b949350505050565b60006002600083815260200190815260200160002060009054906101000a900473ffffffffffffffffffffffffffffffffffffffff169050919050565b611c1b8484848461196d565b1515611c8f576040517f08c379a00000000000000000000000000000000000000000000000000000000081526004018080602001828103825260188152602001807f536f6c7574696f6e206973206e6f74207665726966696564000000000000000081525060200191505060405180910390fd5b611c9985876121bd565b611ca386866117c8565b50505050505050565b60008073ffffffffffffffffffffffffffffffffffffffff168273ffffffffffffffffffffffffffffffffffffffff1614151515611d52576040517f08c379a00000000000000000000000000000000000000000000000000000000081526004018080602001828103825260108152602001807f496e76616c696420616464726573732e0000000000000000000000000000000081525060200191505060405180910390fd5b611d99600460008473ffffffffffffffffffffffffffffffffffffffff1673ffffffffffffffffffffffffffffffffffffffff168152602001908152602001600020612a37565b9050919050565b60008060009054906101000a900473ffffffffffffffffffffffffffffffffffffffff16905090565b3373ffffffffffffffffffffffffffffffffffffffff168273ffffffffffffffffffffffffffffffffffffffff1614151515611e6d576040517f08c379a000000000000000000000000000000000000000000000000000000000815260040180806020018281038252601e8152602001807f53656e6465722063616e6e6f7420626520746865206f70657261746f722e000081525060200191505060405180910390fd5b80600560003373ffffffffffffffffffffffffffffffffffffffff1673ffffffffffffffffffffffffffffffffffffffff16815260200190815260200160002060008473ffffffffffffffffffffffffffffffffffffffff1673ffffffffffffffffffffffffffffffffffffffff16815260200190815260200160002060006101000a81548160ff0219169083151502179055508173ffffffffffffffffffffffffffffffffffffffff163373ffffffffffffffffffffffffffffffffffffffff167f17307eab39ab6107e8899845ad3d59bd9653f200f220920489ca2b5937696c3183604051808215151515815260200191505060405180910390a35050565b601481815481101515611f7d57fe5b90600052602060002090600202016000915090508060000154908060010160009054906101000a900473ffffffffffffffffffffffffffffffffffffffff16905082565b611fcc8484846116e4565b611fd884848484612a45565b151561204c576040517f08c379a00000000000000000000000000000000000000000000000000000000081526004018080602001828103825260178152602001807f5472616e73666572206e6f742066756c66696c6c65642e00000000000000000081525060200191505060405180910390fd5b50505050565b606060118054600181600116156101000203166002900480601f0160208091040260200160405190810160405280929190818152602001828054600181600116156101000203166002900480156120ea5780601f106120bf576101008083540402835291602001916120ea565b820191906000526020600020905b8154815290600101906020018083116120cd57829003601f168201915b5050505050905090565b60606120ff82612c30565b151561210a57600080fd5b601260008381526020019081526020016000208054600181600116156101000203166002900480601f0160208091040260200160405190810160405280929190818152602001828054600181600116156101000203166002900480156121b15780601f10612186576101008083540402835291602001916121b1565b820191906000526020600020905b81548152906001019060200180831161219457829003601f168201915b50505050509050919050565b60008282604051602001808381526020018273ffffffffffffffffffffffffffffffffffffffff1673ffffffffffffffffffffffffffffffffffffffff1660601b815260140192505050604051602081830303815290604052805190602001209050600073ffffffffffffffffffffffffffffffffffffffff166015600083815260200190815260200160002060010160009054906101000a900473ffffffffffffffffffffffffffffffffffffffff1673ffffffffffffffffffffffffffffffffffffffff161415156122f9576040517f08c379a00000000000000000000000000000000000000000000000000000000081526004018080602001828103825260178152602001807f536f6c7574696f6e20616c72656164792065786973747300000000000000000081525060200191505060405180910390fd5b60405180604001604052808481526020018373ffffffffffffffffffffffffffffffffffffffff16815250601560008381526020019081526020016000206000820151816000015560208201518160010160006101000a81548173ffffffffffffffffffffffffffffffffffffffff021916908373ffffffffffffffffffffffffffffffffffffffff1602179055509050507f078793128cefb19aac38a33f9e5df39f67716907f6d747e8065545699e0b2b8d8383604051808381526020018273ffffffffffffffffffffffffffffffffffffffff1673ffffffffffffffffffffffffffffffffffffffff1681526020019250505060405180910390a1505050565b6000600560008473ffffffffffffffffffffffffffffffffffffffff1673ffffffffffffffffffffffffffffffffffffffff16815260200190815260200160002060008373ffffffffffffffffffffffffffffffffffffffff1673ffffffffffffffffffffffffffffffffffffffff16815260200190815260200160002060009054906101000a900460ff16905092915050565b6000809054906101000a900473ffffffffffffffffffffffffffffffffffffffff1673ffffffffffffffffffffffffffffffffffffffff163373ffffffffffffffffffffffffffffffffffffffff16141515612536576040517f08c379a00000000000000000000000000000000000000000000000000000000081526004018080602001828103825260228152602001806147656022913960400191505060405180910390fd5b600073ffffffffffffffffffffffffffffffffffffffff168173ffffffffffffffffffffffffffffffffffffffff16141515156125db576040517f08c379a000000000000000000000000000000000000000000000000000000000815260040180806020018281038252601d8152602001807f4e6577206f776e6572206164647265737320697320696e76616c69642e00000081525060200191505060405180910390fd5b806000806101000a81548173ffffffffffffffffffffffffffffffffffffffff021916908373ffffffffffffffffffffffffffffffffffffffff1602179055506000809054906101000a900473ffffffffffffffffffffffffffffffffffffffff1673ffffffffffffffffffffffffffffffffffffffff167f04dba622d284ed0014ee4b9a6a68386be1a4c08a4913ae272de89199cc68616360405160405180910390a250565b60008061268e83611bd2565b90508073ffffffffffffffffffffffffffffffffffffffff168473ffffffffffffffffffffffffffffffffffffffff1614806126fd57508373ffffffffffffffffffffffffffffffffffffffff166126e5846110a8565b73ffffffffffffffffffffffffffffffffffffffff16145b8061270e575061270d81856123fb565b5b91505092915050565b612722838383612ca2565b61272c8382612f49565b61273682826130ed565b505050565b61274582826131b4565b61274f82826130ed565b612758816133d6565b5050565b61276581612c30565b15156127d9576040517f08c379a00000000000000000000000000000000000000000000000000000000081526004018080602001828103825260158152602001807f546f6b656e20646f6573206e6f742065786973742e000000000000000000000081525060200191505060405180910390fd5b61288560118054600181600116156101000203166002900480601f0160208091040260200160405190810160405280929190818152602001828054600181600116156101000203166002900480156128725780601f1061284757610100808354040283529160200191612872565b820191906000526020600020905b81548152906001019060200180831161285557829003601f168201915b505050505061288083613422565b61355c565b6012600083815260200190815260200160002090805190602001906128ab929190614569565b5050565b6000807f30644e72e131a029b85045b68181585d2833e84879b9709143e1f593f000000190506128dd6145e9565b6128e56135a0565b905080608001515160018651011415156128fe57600080fd5b612906614631565b6040518060400160405280600081526020016000815250905060008090505b86518110156129aa5783878281518110151561293d57fe5b9060200190602002015110151561295357600080fd5b61299b8261299685608001516001850181518110151561296f57fe5b906020019060200201518a8581518110151561298757fe5b906020019060200201516139f9565b613a95565b91508080600101915050612925565b506129d181836080015160008151811015156129c257fe5b90602001906020020151613a95565b9050612a17856000015186602001516129e984613b52565b85604001516129fb8a60400151613b52565b8760600151612a0d8960000151613b52565b8960200151613bee565b1515612a295760019350505050612a31565b600093505050505b92915050565b600081600001549050919050565b6000612a668473ffffffffffffffffffffffffffffffffffffffff16613d72565b1515612a755760019050612c28565b60008473ffffffffffffffffffffffffffffffffffffffff1663150b7a02338887876040518563ffffffff1660e01b8152600401808573ffffffffffffffffffffffffffffffffffffffff1673ffffffffffffffffffffffffffffffffffffffff1681526020018473ffffffffffffffffffffffffffffffffffffffff1673ffffffffffffffffffffffffffffffffffffffff16815260200183815260200180602001828103825283818151815260200191508051906020019080838360005b83811015612b50578082015181840152602081019050612b35565b50505050905090810190601f168015612b7d5780820380516001836020036101000a031916815260200191505b5095505050505050602060405180830381600087803b158015612b9f57600080fd5b505af1158015612bb3573d6000803e3d6000fd5b505050506040513d6020811015612bc957600080fd5b8101908080519060200190929190505050905063150b7a0260e01b7bffffffffffffffffffffffffffffffffffffffffffffffffffffffff1916817bffffffffffffffffffffffffffffffffffffffffffffffffffffffff1916149150505b949350505050565b6000806002600084815260200190815260200160002060009054906101000a900473ffffffffffffffffffffffffffffffffffffffff169050600073ffffffffffffffffffffffffffffffffffffffff168173ffffffffffffffffffffffffffffffffffffffff161415915050919050565b6002600082815260200190815260200160002060009054906101000a900473ffffffffffffffffffffffffffffffffffffffff1673ffffffffffffffffffffffffffffffffffffffff168373ffffffffffffffffffffffffffffffffffffffff16141515612d5b576040517f08c379a00000000000000000000000000000000000000000000000000000000081526004018080602001828103825260268152602001806147d46026913960400191505060405180910390fd5b600073ffffffffffffffffffffffffffffffffffffffff168273ffffffffffffffffffffffffffffffffffffffff1614151515612e00576040517f08c379a00000000000000000000000000000000000000000000000000000000081526004018080602001828103825260108152602001807f496e76616c696420616464726573732e0000000000000000000000000000000081525060200191505060405180910390fd5b612e0981613dbd565b816002600083815260200190815260200160002060006101000a81548173ffffffffffffffffffffffffffffffffffffffff021916908373ffffffffffffffffffffffffffffffffffffffff160217905550612ea2600460008473ffffffffffffffffffffffffffffffffffffffff1673ffffffffffffffffffffffffffffffffffffffff168152602001908152602001600020613e7d565b612ee9600460008573ffffffffffffffffffffffffffffffffffffffff1673ffffffffffffffffffffffffffffffffffffffff168152602001908152602001600020613e93565b808273ffffffffffffffffffffffffffffffffffffffff168473ffffffffffffffffffffffffffffffffffffffff167fddf252ad1be2c89b69c2b068fc378daa952ba7f163c4a11628f55a4df523b3ef60405160405180910390a4505050565b6000612fa16001600660008673ffffffffffffffffffffffffffffffffffffffff1673ffffffffffffffffffffffffffffffffffffffff16815260200190815260200160002080549050613eb690919063ffffffff16565b90506000600760008481526020019081526020016000205490508181141515613094576000600660008673ffffffffffffffffffffffffffffffffffffffff1673ffffffffffffffffffffffffffffffffffffffff1681526020019081526020016000208381548110151561301257fe5b9060005260206000200154905080600660008773ffffffffffffffffffffffffffffffffffffffff1673ffffffffffffffffffffffffffffffffffffffff1681526020019081526020016000208381548110151561306c57fe5b9060005260206000200181905550816007600083815260200190815260200160002081905550505b600660008573ffffffffffffffffffffffffffffffffffffffff1673ffffffffffffffffffffffffffffffffffffffff1681526020019081526020016000208054809190600190036130e6919061464b565b5050505050565b600660008373ffffffffffffffffffffffffffffffffffffffff1673ffffffffffffffffffffffffffffffffffffffff168152602001908152602001600020805490506007600083815260200190815260200160002081905550600660008373ffffffffffffffffffffffffffffffffffffffff1673ffffffffffffffffffffffffffffffffffffffff1681526020019081526020016000208190806001815401808255809150509060018203906000526020600020016000909192909190915055505050565b600073ffffffffffffffffffffffffffffffffffffffff168273ffffffffffffffffffffffffffffffffffffffff1614151515613259576040517f08c379a00000000000000000000000000000000000000000000000000000000081526004018080602001828103825260108152602001807f496e76616c696420616464726573732e0000000000000000000000000000000081525060200191505060405180910390fd5b6000151561326682612c30565b15151415156132dd576040517f08c379a00000000000000000000000000000000000000000000000000000000081526004018080602001828103825260158152602001807f546f6b656e20616c7265616479206578697374732e000000000000000000000081525060200191505060405180910390fd5b816002600083815260200190815260200160002060006101000a81548173ffffffffffffffffffffffffffffffffffffffff021916908373ffffffffffffffffffffffffffffffffffffffff160217905550613376600460008473ffffffffffffffffffffffffffffffffffffffff1673ffffffffffffffffffffffffffffffffffffffff168152602001908152602001600020613e7d565b808273ffffffffffffffffffffffffffffffffffffffff16600073ffffffffffffffffffffffffffffffffffffffff167fddf252ad1be2c89b69c2b068fc378daa952ba7f163c4a11628f55a4df523b3ef60405160405180910390a45050565b6008805490506009600083815260200190815260200160002081905550600881908060018154018082558091505090600182039060005260206000200160009091929091909150555050565b6060600082141561346a576040518060400160405280600181526020017f30000000000000000000000000000000000000000000000000000000000000008152509050613557565b600082905060005b600082141515613498578080600101915050600a8281151561349057fe5b049150613472565b6060816040519080825280601f01601f1916602001820160405280156134cd5781602001600182028038833980820191505090505b50905060006001830390505b60008614151561354f57600a868115156134ef57fe5b0660300160f81b82828060019003935081518110151561350b57fe5b9060200101907effffffffffffffffffffffffffffffffffffffffffffffffffffffffffffff1916908160001a905350600a8681151561354757fe5b0495506134d9565b819450505050505b919050565b60606135988383604051806020016040528060008152506040518060200160405280600081525060405180602001604052806000815250613f00565b905092915050565b6135a86145e9565b60405180604001604052807f211374805f9c12cb1a46d83a89ec7f78010776caca18360faaa3a38c597f90d781526020017ed531870db1e95375bfbef31a44a4b2a83631ee7dbdfc5ef80ad59dc2b02a1e8152508160000181905250604051806040016040528060405180604001604052807f099e3845ac8f4c174964e27eedb95645daebaaf524fc30660a2f38c6d96dd34f81526020017f1e5723d65162175e66d1cab81e5d7ce751f207136a23958fdaa844d9fb48131d815250815260200160405180604001604052807f0b57f4311ce611c213e8ba6e153be0d266cd4333645e7e3e4c265a1cf7a8d3b881526020017f114126de3f9530b46f687105cf1b74814df9f92a67b0bfac233c68c98d1de5518152508152508160200181905250604051806040016040528060405180604001604052807f26a91b931597552890b4ec1e03525895d2b59f0c34646f7b31f2c8272bb9caaa81526020017f1a9c2141c36a9c714f539b5f8c26616193a24e58c33934beb8d00f3241d0c329815250815260200160405180604001604052807f077f779a53cd1260da1d9a8726809981e7344612b90f07ed5ddff5a7117c3e8d81526020017f1369f40c5f53f23eac913d8c4953f551b75a9fc92cecd8e566ed6d3d9be6a3938152508152508160400181905250604051806040016040528060405180604001604052807f0672e10edaff0b375bedc1518ac1d94482ed9c0b5a0c99feb69dd88020ebffee81526020017f2f4f562e7777fa32c9fa1187dffc32c9823fb1f1249414e2b98df0a07a377dd0815250815260200160405180604001604052807f19620611c6690178b1a59f226479eed46ef0fa4668e97524cf18f4dce569af3a81526020017f1b5371bfb28013f1bc3ad415be63737bc513473261b71de7a3275311a857c59a8152508152508160600181905250600360405190808252806020026020018201604052801561388e57816020015b61387b614677565b8152602001906001900390816138735790505b50816080018190525060405180604001604052807f17b1068a711000314812c7b882e13af4394469bd02d619b57ffe1042a7938b2281526020017f0ac05d4d6ed740629964db43ec59c13d600f2337c02bfd239cbf8fdb23e85de6815250816080015160008151811015156138ff57fe5b9060200190602002018190525060405180604001604052807f11c8e3c8a7e281f5c6fba01827fa0b8e44baa2a35c2ce57d60861571874e381d81526020017f12a372d46382c54672427c837e0d1550c3101855ece3830d51a67da3c9606afe8152508160800151600181518110151561397457fe5b9060200190602002018190525060405180604001604052807f1d11b36930182ad18d32580df7818aed29acd53370df24cbe005110aad2c822f81526020017f2bfeb0945814e14ed7bfd9082f0f3b86335b73aa9ffbca879d9c4a12cb00aeca815250816080015160028151811015156139e957fe5b9060200190602002018190525090565b613a01614631565b613a09614691565b8360000151816000600381101515613a1d57fe5b6020020181815250508360200151816001600381101515613a3a57fe5b60200201818152505082816002600381101515613a5357fe5b6020020181815250506000606083608084600060076107d05a03f190508060008114613a7e57613a80565bfe5b50801515613a8d57600080fd5b505092915050565b613a9d614631565b613aa56146b3565b8360000151816000600481101515613ab957fe5b6020020181815250508360200151816001600481101515613ad657fe5b6020020181815250508260000151816002600481101515613af357fe5b6020020181815250508260200151816003600481101515613b1057fe5b602002018181525050600060608360c084600060066107d05a03f190508060008114613b3b57613b3d565bfe5b50801515613b4a57600080fd5b505092915050565b613b5a614631565b60007f30644e72e131a029b85045b68181585d97816a916871ca8d3c208c16d87cfd47905060008360000151148015613b97575060008360200151145b15613bbb576040518060400160405280600081526020016000815250915050613be9565b604051806040016040528084600001518152602001828560200151811515613bdf57fe5b0683038152509150505b919050565b600060606004604051908082528060200260200182016040528015613c2d57816020015b613c1a614677565b815260200190600190039081613c125790505b50905060606004604051908082528060200260200182016040528015613c6d57816020015b613c5a6146d5565b815260200190600190039081613c525790505b5090508a826000815181101515613c8057fe5b9060200190602002018190525088826001815181101515613c9d57fe5b9060200190602002018190525086826002815181101515613cba57fe5b9060200190602002018190525084826003815181101515613cd757fe5b9060200190602002018190525089816000815181101515613cf457fe5b9060200190602002018190525087816001815181101515613d1157fe5b9060200190602002018190525085816002815181101515613d2e57fe5b9060200190602002018190525083816003815181101515613d4b57fe5b90602001906020020181905250613d6282826141e0565b9250505098975050505050505050565b60008060007fc5d2460186f7233c927e7db2dcc703c0e500b653ca82273b7bfad8045d85a47060001b9050833f9150808214158015613db457506000801b8214155b92505050919050565b600073ffffffffffffffffffffffffffffffffffffffff166003600083815260200190815260200160002060009054906101000a900473ffffffffffffffffffffffffffffffffffffffff1673ffffffffffffffffffffffffffffffffffffffff16141515613e7a5760006003600083815260200190815260200160002060006101000a81548173ffffffffffffffffffffffffffffffffffffffff021916908373ffffffffffffffffffffffffffffffffffffffff1602179055505b50565b6001816000016000828254019250508190555050565b613eab60018260000154613eb690919063ffffffff16565b816000018190555050565b6000613ef883836040518060400160405280601e81526020017f536166654d6174683a207375627472616374696f6e206f766572666c6f770000815250614473565b905092915050565b6060808690506060869050606086905060608690506060869050606081518351855187518951010101016040519080825280601f01601f191660200182016040528015613f5c5781602001600182028038833980820191505090505b509050606081905060008090506000809050600090505b8851811015613fe7578881815181101515613f8a57fe5b90602001015160f81c60f81b8383806001019450815181101515613faa57fe5b9060200101907effffffffffffffffffffffffffffffffffffffffffffffffffffffffffffff1916908160001a9053508080600101915050613f73565b600090505b875181101561406057878181518110151561400357fe5b90602001015160f81c60f81b838380600101945081518110151561402357fe5b9060200101907effffffffffffffffffffffffffffffffffffffffffffffffffffffffffffff1916908160001a9053508080600101915050613fec565b600090505b86518110156140d957868181518110151561407c57fe5b90602001015160f81c60f81b838380600101945081518110151561409c57fe5b9060200101907effffffffffffffffffffffffffffffffffffffffffffffffffffffffffffff1916908160001a9053508080600101915050614065565b600090505b85518110156141525785818151811015156140f557fe5b90602001015160f81c60f81b838380600101945081518110151561411557fe5b9060200101907effffffffffffffffffffffffffffffffffffffffffffffffffffffffffffff1916908160001a90535080806001019150506140de565b600090505b84518110156141cb57848181518110151561416e57fe5b90602001015160f81c60f81b838380600101945081518110151561418e57fe5b9060200101907effffffffffffffffffffffffffffffffffffffffffffffffffffffffffffff1916908160001a9053508080600101915050614157565b82995050505050505050505095945050505050565b6000815183511415156141f257600080fd5b60008351905060006006820290506060816040519080825280602002602001820160405280156142315781602001602082028038833980820191505090505b50905060008090505b8381101561440f57868181518110151561425057fe5b9060200190602002015160000151826000600684020181518110151561427257fe5b9060200190602002018181525050868181518110151561428e57fe5b906020019060200201516020015182600160068402018151811015156142b057fe5b906020019060200201818152505085818151811015156142cc57fe5b906020019060200201516000015160006002811015156142e857fe5b6020020151826002600684020181518110151561430157fe5b9060200190602002018181525050858181518110151561431d57fe5b9060200190602002015160000151600160028110151561433957fe5b6020020151826003600684020181518110151561435257fe5b9060200190602002018181525050858181518110151561436e57fe5b9060200190602002015160200151600060028110151561438a57fe5b602002015182600460068402018151811015156143a357fe5b906020019060200201818152505085818151811015156143bf57fe5b906020019060200201516020015160016002811015156143db57fe5b602002015182600560068402018151811015156143f457fe5b9060200190602002018181525050808060010191505061423a565b506144186146fb565b60006020826020860260208601600060086107d05a03f19050806000811461443f57614441565bfe5b5080151561444e57600080fd5b600082600060018110151561445f57fe5b602002015114159550505050505092915050565b60008383111582901515614522576040517f08c379a00000000000000000000000000000000000000000000000000000000081526004018080602001828103825283818151815260200191508051906020019080838360005b838110156144e75780820151818401526020810190506144cc565b50505050905090810190601f1680156145145780820380516001836020036101000a031916815260200191505b509250505060405180910390fd5b5060008385039050809150509392505050565b604051806101000160405280614549614677565b81526020016145566146d5565b8152602001614563614677565b81525090565b828054600181600116156101000203166002900490600052602060002090601f016020900481019282601f106145aa57805160ff19168380011785556145d8565b828001600101855582156145d8579182015b828111156145d75782518255916020019190600101906145bc565b5b5090506145e5919061471d565b5090565b604051806101e001604052806145fd614677565b815260200161460a6146d5565b81526020016146176146d5565b81526020016146246146d5565b8152602001606081525090565b604051806040016040528060008152602001600081525090565b81548183558181111561467257818360005260206000209182019101614671919061471d565b5b505050565b604051806040016040528060008152602001600081525090565b6040518060600160405280600390602082028038833980820191505090505090565b6040518060800160405280600490602082028038833980820191505090505090565b60405180608001604052806146e8614742565b81526020016146f5614742565b81525090565b6040518060200160405280600190602082028038833980820191505090505090565b61473f91905b8082111561473b576000816000905550600101614723565b5090565b90565b604051806040016040528060029060208202803883398082019150509050509056fe4f6e6c79206f776e65722063616e2063616c6c20746869732066756e6374696f6e2e4164647265737320697320616c726561647920746865206f776e6572206f66207468697320746f6b656e2e5472616e73616374696f6e207375636365737366756c6c792076657269666965642e53656e646572206973206e6f7420746865206f776e6572206f66207468697320746f6b656e2e436f6e747261637420697320616c726561647920696e20746869732073746174652ea165627a7a72305820dca5fd4866ce520016d8ac7f653ea685cc597370360f055607a8c66194db4a95002968747470733a2f2f73332d75732d776573742d322e616d617a6f6e6177732e636f6d2f756461636974792d626c6f636b636861696e2f63617073746f6e652f",
  "source": "pragma solidity >0.4.21 <=0.8.21;\n\n// TODO define a contract call to the zokrates generated solidity contract <Verifier> or <renamedVerifier>\nimport \"./ERC721Mintable.sol\";\nimport \"./Verifier.sol\";\n\n// TODO define another contract named SolnSquareVerifier that inherits from your ERC721Mintable class\ncontract SolnSquareVerifier is CustomERC721Token, Verifier {\n\n\n// TODO define a solutions struct that can hold an index & an address\n    struct Solution {\n        uint256 index;\n        address solutionAddress;\n    }\n\n// TODO define an array of the above struct\n    Solution[] public solutions;\n\n// TODO define a mapping to store unique solutions submitted\n    mapping(bytes32 => Solution) private uniqueSolutions;\n\n\n// TODO Create an event to emit when a solution is added\n    event SolutionAdded(uint256 index, address solutionAddress);\n\n\n// TODO Create a function to add the solutions to the array and emit the event\n    function addSolution(uint256 index, address solutionAddress) public {\n        bytes32 solutionHash = keccak256(abi.encodePacked(index, solutionAddress));\n        require(uniqueSolutions[solutionHash].solutionAddress == address(0), \"Solution already exists\");\n        uniqueSolutions[solutionHash] = Solution({index: index, solutionAddress: solutionAddress});\n        emit SolutionAdded(index, solutionAddress);\n    }\n\n\n// TODO Create a function to mint new NFT only after the solution has been verified\n//  - make sure the solution is unique (has not been used before)\n//  - make sure you handle metadata as well as tokenSuplly\n    function mintNewNFT(\n        address to,\n        uint256 tokenId,\n        uint[2] memory a,\n        uint[2][2] memory b,\n        uint[2] memory c,\n        uint[2] memory input\n    ) public {\n        require(verifyTx(a, b, c, input), \"Solution is not verified\");\n        addSolution(tokenId, to);\n        super.mint(to, tokenId);\n    }\n\n}\n\n\n\n  \n\n\n\n\n\n\n\n\n\n\n\n\n\n\n\n\n\n\n\n\n\n\n\n\n\n\n",
  "sourcePath": "/Users/philipplaurim/Desktop/Udemy/BlockchainNanodegree/CapStone-Project/eth-contracts/contracts/SolnSquareVerifier.sol",
  "compiler": {
    "name": "solc",
    "version": "0.5.5+commit.47a71e8f.Emscripten.clang"
  },
  "schemaVersion": "3.4.7",
  "updatedAt": "2023-10-27T13:47:33.598Z",
  "devdoc": {
    "methods": {
      "isApprovedForAll(address,address)": {
        "details": "Tells whether an operator is approved by a given owner",
        "params": {
          "operator": "operator address which you want to query the approval of",
          "owner": "owner address which you want to query the approval of"
        },
        "return": "bool whether the given operator is approved by the given owner"
      },
      "setApprovalForAll(address,bool)": {
        "details": "Sets or unsets the approval of a given operator An operator is allowed to transfer all tokens of the sender on their behalf",
        "params": {
          "approved": "representing the status of the approval to be set",
          "to": "operator address to set the approval"
        }
      },
      "supportsInterface(bytes4)": {
        "details": "implement supportsInterface(bytes4) using a lookup table"
      },
      "tokenByIndex(uint256)": {
        "details": "Gets the token ID at a given index of all the tokens in this contract Reverts if the index is greater or equal to the total number of tokens",
        "params": {
          "index": "uint256 representing the index to be accessed of the tokens list"
        },
        "return": "uint256 token ID at the given index of the tokens list"
      },
      "tokenOfOwnerByIndex(address,uint256)": {
        "details": "Gets the token ID at a given index of the tokens list of the requested owner",
        "params": {
          "index": "uint256 representing the index to be accessed of the requested tokens list",
          "owner": "address owning the tokens list to be accessed"
        },
        "return": "uint256 token ID at the given index of the tokens list owned by the requested address"
      },
      "totalSupply()": {
        "details": "Gets the total amount of tokens stored by the contract",
        "return": "uint256 representing the total amount of tokens"
      }
    }
  },
  "userdoc": {
    "methods": {}
  }
}